:020000040800F2
:1040000000000120C5420008CB420008CF42000852
:1040100041430008454300088D43000800000000AC
:10402000000000000000000000000000D543000870
:10403000D943000800000000DD430008E143000808
:10404000F1430008F1430008F1430008F143000880
:10405000F1430008F1430008F1430008F143000870
:10406000F1430008F1430008F1430008F143000860
:10407000F1430008F1430008F1430008F143000850
:10408000F1430008F1430008F1430008000000007C
:10409000000000000000000000000000F1430008E4
:1040A000F1430008F1430008F1430008F143000820
:1040B000F1430008F1430008F1430008F143000810
:1040C000F1430008F1430008F1430008F143000800
:1040D000F1430008F1430008F1430008000000002C
:1040E000F1430008F1430008F1430008000000001C
:1040F000000000000000000000000000F143000884
:1041000000000000F1430008F1430008F1430008FB
:10411000000000000000000000000000000000009F
:10412000F1430008F1430008F1430008F14300089F
:10413000F143000800000000000000000000000043
:10414000000000000000000000000000F143000833
:10415000F1430008F1430008F1430008F14300086F
:10416000F1430008F14300080000000000000000D7
:10417000000000000000000000000000000000003F
:1041800000000000F14300080000000000000000F3
:10419000F143000800B583B000F044FA384B394AC7
:1041A0001360394A1360394900E02146384B99427F
:1041B0000BD20A684B6801F10C0488689842F4D964
:1041C0001168196004330432F8E72E4B1A68314B3A
:1041D0009A4200D0FEE72C4B1A682F4B9A42F9D135
:1041E000274B2E4A13602E4A13602E4B05E0002009
:1041F000106004329342FAD80B462B4A934204D201
:10420000194651F8082B5B68F4E7244B1B6813B977
:10421000234B1B6803B1FEE700F04CFB694601A885
:1042200000F022F9214C224BE41AA4100025AC42E4
:1042300014DC204C204BE41AA4100025AC4213DC03
:104240000099019800F037FB05461C4C1C4BE41A02
:10425000A410002C0EDC284600F0E2F8144B53F8B2
:10426000253098470135E2E7134B53F8253098473E
:104270000135E3E7013C124B53F824309847E8E757
:10428000BABADECA0000002070000020F443000823
:104290000C4400087856341232547698740000208A
:1042A0000C0100200C4400081C4400081C440008B9
:1042B0001C4400081C4400081C4400081C4400085E
:1042C0001C44000808B5FFF765FF00BEFEE71EF0BE
:1042D000040F0CBFEFF30880EFF309807146414AE9
:1042E00010472DE9F04182B004468846124B5E6BC0
:1042F0009F6B9D6A1B6B13F0020F03D00E4BDB6AA2
:10430000002B0CDB0D4800F0EBF8CDF800803B46AD
:1043100032462946204600F0FBF800BEFEE74BF689
:10432000AB6100F06FF90028ECD0034B4FF0004276
:10433000DA6202B0BDE8F08100ED00E0045300084D
:1043400000BEFEE71EF0040F0CBFEFF30880EFF392
:1043500009807146244A10472DE9F04182B0044695
:104360008846084B5E6B9F6B9D6A074800F0B8F863
:10437000CDF800803B4632462946204600F0C8F87A
:1043800000BEFEE700ED00E0145300081EF0040F2D
:104390000CBFEFF30880EFF309807146134A104712
:1043A0002DE9F04182B004468846084B5E6B9F6B56
:1043B0009D6A074800F094F8CDF800803B463246ED
:1043C0002946204600F0A4F800BEFEE700ED00E01C
:1043D0002053000800BEFEE700BEFEE700BEFEE779
:1043E00070470000E342000859430008A143000859
:0443F00000BEFEE726
:1043F4006453000800000020740000206453000887
:1044040000000010000000107400002010010020C3
:08441400000000100000001080
:10442000FEE7000008B503460C4A12685AB10B4A71
:104430001068033323F003030344094A934206D868
:10444000064A136008BD054A06491160EFE700F00F
:1044500055FA0C2303604FF0FF30F3E7780000209B
:1044600000FC00201001002001230360014B0B60C1
:10447000704700BF040000202DE9F04385B00446DA
:104480000F4643560BB10E461EE004252846214632
:10449000ABBE0446384605B0BDE8F08314F9011BF5
:1044A00004AA1A4402F8101C0133AB42F6D304AA42
:1044B0001344002203F8102C4FF00408E94640464C
:1044C0004946ABBE8046761B002EE3D03546102E03
:1044D00028BF10250023E8E708B5FFF7CDFF08BD8A
:1044E0000FB400B583B004AB53F8042B01938021C3
:1044F000064800F035FA002803DD01460348FFF7BF
:10450000EBFF03B05DF804EB04B0704780000020BF
:10451000F8B504460D4617461E462748FFF7E0FF4C
:1045200021682648FFF7DCFF61682548FFF7D8FFC0
:10453000A1682448FFF7D4FFE1682348FFF7D0FFC4
:1045400021692248FFF7CCFF61692148FFF7C8FFC6
:10455000A1692048FFF7C4FFE1691F48FFF7C0FFCA
:104560001E48FFF7BDFF29461D48FFF7B9FF1D4C48
:10457000E16A1D48FFF7B4FF216B1C48FFF7B0FF4D
:10458000E16B1B48FFF7ACFF15F0800F0AD115F463
:10459000004F0CD11748FFF7A3FF06991648FFF705
:1045A0009FFFF8BD39461548FFF79AFFEFE7314600
:1045B0001348FFF795FFEDE7E8510008F8510008B0
:1045C0000852000818520008285200083852000803
:1045D00048520008585200086852000878520008F3
:1045E0008452000800ED00E094520008A452000834
:1045F000B4520008E4520008EC520008C45200080B
:10460000D452000883691A888A4201D0002070477A
:104610000268033A012A03D80233836101207047FC
:104620000020704708B500F009F8024A024B9A6072
:1046300008BD00BF0040000800ED00E0024B4FF055
:1046400000629A60704700BF00ED00E0034620B9A9
:10465000A1F10D00C0B202280DD9012B07D010B472
:10466000012B17D043B1022B22D010BC7047C81EBB
:10467000C0B20128F3D87047144B1C6848000321CE
:10468000814024EA010119601C6802FA00F121430B
:104690001960EAE70E4B1C6848000321814024EAB8
:1046A000010119601C6802FA00F121431960DCE77E
:1046B000084B1868490003248C4020EA0400186065
:1046C000186802FA01F101431960CEE700000240C8
:1046D000000402400008024070B4044620B9A1F171
:1046E0000D00C0B2022806D9012C06D0012C21D021
:1046F00044B1022C36D070BC7047C81EC0B201282D
:10470000F4D8F8E7234885684C000326A64025EA3C
:10471000060585608568A3402B43836043680124B8
:104720008C4023EA04034360436802FA01F1194311
:104730004160E0E7184885684C000326A64025EA5A
:10474000060585608568A3402B4383604368012488
:104750008C4023EA04034360436802FA01F11943E1
:104760004160C8E70D4884684E000325B54024EA3F
:10477000050484608468B340234383604368012454
:104780008C4023EA04034360436802FA01F11943B1
:104790004160B0E70000024000040240000802400F
:1047A000034620B9A1F10D00C0B202280BD9012B9C
:1047B00005D0012B18D03BB1022B25D07047C81E65
:1047C000C0B20128F5D870473AB1012AFBD10123C4
:1047D00003FA01F1144B996170471031012303FA78
:1047E00001F1114B996170473AB1012AEBD10123D4
:1047F00003FA01F10D4B996170471031012303FA5F
:1048000001F10A4B996170473AB1012ADBD10123CA
:1048100003FA01F1064B996170471031012303FA45
:1048200001F1034B9961CEE7000002400004024011
:1048300000080240084A136843F001031360064B66
:104840001B6813F0020FFAD0034B9A6822F00302A0
:104850009A609A689A60704700380240032826D808
:104860001F2924D8032822D8DFE800F0020A121AF0
:104870000F48036C012202FA01F1194301647047E9
:104880000B48436C012202FA01F11943416470475D
:104890000748036B012202FA01F1194301637047D3
:1048A0000348436B012202FA01F119434163704747
:1048B00000380240704710B5FFF7BCFF002102200E
:1048C000FFF7CCFF01210220FFF7C8FF002411E011
:1048D000012221460020FFF7B9FE00231A46214697
:1048E0001846FFF7F9FE012221460020FFF758FF86
:1048F0000134E4B2072CEBD9FEE70000014B186845
:10490000704700BF0C00002030B5141E05469BB058
:10491000184605DA8B232B604FF0FF301BB030BDFB
:104920004FF40273ADF80C3014BF04F1FF3323468B
:10493000029305934FF6FF7300910491ADF80E308A
:1049400002461E9B6946284600F072F8431CBCBF15
:104950008B232B60002CE1D0009B00221A70DDE736
:1049600007B5009313460A46014603480068FFF75F
:10497000CBFF03B05DF804FB0C0000202DE9F047ED
:104980008E689E4282460C469046994637D88A8960
:1049900012F4906F31D0256809696F1A6569022396
:1049A00005EB450595FBF3F509F101033B449D42F9
:1049B00038BF1D46530530D5294600F07BFB06461F
:1049C00050B90C23CAF80030A38943F04003A381F7
:1049D0004FF0FF30BDE8F0873A46216900F0F8FA61
:1049E000A38923F4906343F08003A381266165616A
:1049F0003E44ED1B2660A5604E464E4500D94E460E
:104A000032464146206800F0EEFAA3689B1BA36083
:104A100023681E4426600020DCE72A4600F0A4FB41
:104A200006460028E2D12169504600F0F5FAC8E7B1
:104A30002DE9F04F9DB0804603938B891D060C46EF
:104A400016460FD50B696BB9402100F033FB20608F
:104A5000206128B90C23C8F800304FF0FF30C7E0C0
:104A6000402363610023099320238DF829303023EC
:104A70008DF82A304FF0010B37463D4615F8013BC3
:104A80000BB1252B3ED1B7EB060A0BD0534632466D
:104A900021464046FFF772FF013000F0A480099BD9
:104AA000534409933B78002B00F09D8000234FF086
:104AB000FF32CDE90523049307938DF853301A9301
:104AC0002F46052217F8011B4F4800F031FA049BCE
:104AD000D0B9D90644BF20228DF853201A0744BF0D
:104AE0002B228DF853202A782A2A15D0079A2F4690
:104AF00000200A25394611F8013B303B092B4DD9DE
:104B0000B8B10FE02F46B8E73F4A801A0BFA00F021
:104B1000184304903D46D3E7039A111D1268039190
:104B2000002A01DB079204E0524243F0020307929D
:104B300004933B782E2B0CD17B782A2B33D1039B0B
:104B40001A1D1B680392002BB8BF4FF0FF330237CA
:104B500005932E4D39780322284600F0E9F938B143
:104B60004023401B03FA00F0049B034301370493E6
:104B7000397827488DF8281006227E1C00F0D8F9D5
:104B8000002838D0234B13BB039B073323F00703C4
:104B900008330393099B4B4409936DE705FB0232ED
:104BA00001200F46A6E700230137059319460A2581
:104BB000384610F8012B303A092A03D9002BC8D007
:104BC0000591C6E705FB012101230746F0E703AB8A
:104BD00000932246104B04A94046AFF30080B0F189
:104BE000FF3F8146D6D1A3895B063FF536AF0998D2
:104BF0001DB0BDE8F08F03AB00932246064B04A91D
:104C0000404600F081F8EAE73053000836530008C8
:104C10003A530008000000007D4900082DE9F047E4
:104C200091461F468A680B69DDF820809342B8BF21
:104C30001346C9F8003091F8432006460C4612B1DD
:104C40000133C9F800302368990642BFD9F8003013
:104C50000233C9F80030256815F0060507D104F1C4
:104C6000190AE368D9F800209B1AAB4228DC94F8B3
:104C700043302268003318BF012392062DD404F17B
:104C8000430239463046C047013020D02368E568EA
:104C9000D9F8002003F00603042B08BFAD1AA3685F
:104CA00022690CBF25EAE57500259342C4BF9B1A13
:104CB000ED184FF000091A344D451AD1002008E0D4
:104CC0000123524639463046C047013003D14FF0E8
:104CD000FF30BDE8F0870135C3E7E1185A1C3020EA
:104CE00081F84300224494F8451082F843100233BF
:104CF000C5E70123224639463046C0470130E6D099
:104D000009F10109D8E700002DE9F04301F1430C56
:104D10000C46097E85B06E291746064698460C9AC1
:104D200000F0B38022D8632936D00AD8002900F0D9
:104D3000B980582900F0838004F1420584F84210BC
:104D400032E0642901D06929F6D12068136805068C
:104D500003F104012AD51B681160002B03DA2D2210
:104D60005B4284F843206F480A2239E0732900F03F
:104D70009D8008D86F2920D07029DDD1236843F0A9
:104D80002003236003E0752917D07829D4D1782334
:104D900084F84530644855E01368191D1B6811609C
:104DA00004F1420584F8423001238CE01B68116055
:104DB00010F0400F18BF1BB2CFE713682568181D0D
:104DC0001060280601D51B6802E06806FBD51B8829
:104DD00054486F2914BF0A220822002184F8431086
:104DE0006568A560002DC0F29580216821F004015E
:104DF0002160002B3DD1002D40F08E806546082AB1
:104E00000BD12368DB0708D5236962689A42DEBFAD
:104E1000302305F8013C05F1FF35ACEB05032361B8
:104E2000CDF800803B4603AA21463046FFF7F6FE48
:104E300001304DD14FF0FF3005B0BDE8F083394867
:104E400084F84510136821681D1D1B6815600A064B
:104E50000BD5CA0744BF41F0200121601BB922686D
:104E600022F0200222601022B7E74D0648BF9BB215
:104E7000EFE76546B3FBF2F102FB1133C35C05F8C3
:104E8000013D0B460029F5D1B9E713682568616932
:104E9000181D106028061B6801D5196002E06A061B
:104EA000FBD51980002323616546B9E71368191DF6
:104EB00011601D6862680021284600F039F808B1C9
:104EC000401B606063682361002384F84330A7E7D8
:104ED00023692A4639463046C0470130AAD02368A4
:104EE0009B0713D4E068039B9842B8BF1846A3E71A
:104EF00001234A4639463046C04701309AD0013531
:104F0000E368039A9B1AAB42F2DCEBE7002504F15D
:104F10001909F5E7002BACD1037884F8423004F18D
:104F200042056CE74153000852530008000000009E
:104F300001F0FF01102A2BDB10F0070F08D010F84A
:104F4000013B013A8B422DD010F0070F42B3F6D14E
:104F5000F0B441EA012141EA014122F007047FF067
:104F600000070023F0E80256083C85EA010586EABE
:104F7000010685FA47F5A3FA87F586FA47F6A5FAFA
:104F800087F68EB9EED1F0BC01F0FF0102F0070206
:104F900032B110F8013B013A83EA010313B1F8D1B1
:104FA0000020704701387047002D06BF3546033892
:104FB000073815F0010F07D1013015F4807F02BFCB
:104FC000013015F4C03F0130F0BC0138704700BF1C
:104FD00010B5431E0A44914200D110BD11F8014B97
:104FE00003F8014FF7E7884210B501EB020307D839
:104FF000421E99420AD011F8014B02F8014FF8E71E
:105000008342F5D98118D21AD34200D110BD13F8CA
:10501000014D01F8014DF7E738B50546002945D0A7
:1050200051F8043C0C1F002BB8BFE41800F0D2F874
:105030001F4A1368104633B9636014602846BDE800
:10504000384000F0C8B8A3420CD9216862189342D6
:1050500004BF1A685B68636004BF52182260046072
:10506000ECE713465A680AB1A242FAD919685818EF
:10507000A0420BD120680144581882421960DDD14A
:10508000106852685A6001441960D7E702D90C23AE
:105090002B60D3E7206821188A4204BF1168526848
:1050A000626004BF091821605C60C7E738BD00BFBB
:1050B0000001002070B5CD1C25F0030508350C2D2E
:1050C00038BF0C25002D064601DBA94203D90C236D
:1050D0003360002070BD00F07DF8214A146821463D
:1050E00091B9204C23681BB9304600F063F820606A
:1050F0002946304600F05EF8431C24D10C2333606F
:10510000304600F068F8E4E70B685B1B18D40B2B03
:105110000FD90B60CD50CC18304600F05CF804F18C
:105120000B00231D20F00700C31AD3D05A42E250CF
:10513000D0E78C424B6816BF636013600C46EBE708
:105140000C464968CCE7C41C24F00304A04205D0F7
:10515000211A304600F02EF80130CFD02560DBE771
:105160000001002004010020F8B5074614460E4651
:1051700021B91146BDE8F840FFF79CBF22B9FFF7FF
:105180004BFF25462846F8BD00F026F8A0420FD276
:1051900021463846FFF78EFF05460028F2D03146FB
:1051A0002246FFF715FF31463846FFF735FFE9E79E
:1051B0003546E7E738B5064C002305460846236028
:1051C000FFF730F9431C02D1236803B12B6038BDCF
:1051D000080100207047704751F8043C181F002B4D
:1051E000BCBF0B58C0187047537461636B20667264
:1051F000616D653A0A000000205230203D202025D4
:105200003038580A00000000205231203D2020256F
:105210003038580A00000000205232203D2020255E
:105220003038580A00000000205233203D2020254D
:105230003038580A0000000020523132203D20252D
:105240003038580A00000000204C52203D20202514
:105250003038580A00000000205043203D2020250F
:105260003038580A0000000020505352203D2025BD
:105270003038580A000000004653522F4641523A37
:105280000A0000002043465352203D20202530389C
:10529000580A00002048465352203D20202530382F
:1052A000580A00002044465352203D202025303823
:1052B000580A00002041465352203D202025303816
:1052C000580A0000204D4D464152203D20253038DF
:1052D000580A00002042464152203D202025303807
:1052E000580A00004D6973630A000000204C522FD9
:1052F0004558435F52455455524E3D20253038584D
:105300000A0000005B486172644661756C745D0A56
:10531000000000005B4275734661756C745D0A00A5
:105320005B55736167654661756C745D0A000000CA
:10533000232D302B2000686C4C006566674546477E
:105340000030313233343536373839414243444501
:105350004600303132333435363738396162636470
:035360006566007F
:10536400785634127C000020000000001000002059
:105374000000000000000000000000000000000029
:105384000000000000000000000000000000000019
:105394000000000000000000000000000000000009
:1053A40000000000000000000000000000000000F9
:1053B40000000000000000000000000000000000E9
:1053C40000000000000000000000000000000000D9
:0453D4003254769841
:040000050800419519
:00000001FF
