:020000040800F2
:1000000000000120C5020008CB020008CF02000852
:1000100041030008450300088D03000800000000AC
:10002000000000000000000000000000D5030008F0
:10003000D903000800000000DD030008E103000808
:10004000F1030008F1030008F1030008F1030008C0
:10005000F1030008F1030008F1030008F1030008B0
:10006000F1030008F1030008F1030008F1030008A0
:10007000F1030008F1030008F1030008F103000890
:10008000F1030008F1030008F1030008000000007C
:10009000000000000000000000000000F103000864
:1000A000F1030008F1030008F1030008F103000860
:1000B000F1030008F1030008F1030008F103000850
:1000C000F1030008F1030008F1030008F103000840
:1000D000F1030008F1030008F1030008000000002C
:1000E000F1030008F1030008F1030008000000001C
:1000F000000000000000000000000000F103000804
:1001000000000000F1030008F1030008F1030008FB
:1001100000000000000000000000000000000000DF
:10012000F1030008F1030008F1030008F1030008DF
:10013000F1030008000000000000000000000000C3
:10014000000000000000000000000000F1030008B3
:10015000F1030008F1030008F1030008F1030008AF
:10016000F1030008F1030008000000000000000097
:10017000000000000000000000000000000000007F
:1001800000000000F1030008000000000000000073
:10019000F103000800B583B000F044FA384B394A47
:1001A0001360394A1360394900E02146384B9942BF
:1001B0000BD20A684B6801F10C0488689842F4D9A4
:1001C0001168196004330432F8E72E4B1A68314B7A
:1001D0009A4200D0FEE72C4B1A682F4B9A42F9D175
:1001E000274B2E4A13602E4A13602E4B05E0002049
:1001F000106004329342FAD80B462B4A934204D241
:10020000194651F8082B5B68F4E7244B1B6813B9B7
:10021000234B1B6803B1FEE700F0E8FD694601A827
:1002200000F022F9214C224BE41AA4100025AC4224
:1002300014DC204C204BE41AA4100025AC4213DC43
:100240000099019800F0D4FD05461C4C1C4BE41AA3
:10025000A410002C0EDC284600F0E2F8144B53F8F2
:10026000253098470135E2E7134B53F8253098477E
:100270000135E3E7013C124B53F824309847E8E797
:10028000BABADECA0000002074000020F40300089F
:100290000C04000878563412325476987800002006
:1002A000A80100200C0400081C0400081C0400081D
:1002B0001C0400081C0400081C0400081C0400089E
:1002C0001C04000808B5FFF765FF00BEFEE71EF03E
:1002D000040F0CBFEFF30880EFF309807146414A29
:1002E00010472DE9F04182B004468846124B5E6B00
:1002F0009F6B9D6A1B6B13F0020F03D00E4BDB6AE2
:10030000002B0CDB0D4800F0EBF8CDF800803B46ED
:1003100032462946204600F0FBF800BEFEE74BF6C9
:10032000AB6100F06FF90028ECD0034B4FF00042B6
:10033000DA6202B0BDE8F08100ED00E0E4200008E0
:1003400000BEFEE71EF0040F0CBFEFF30880EFF3D2
:1003500009807146244A10472DE9F04182B00446D5
:100360008846084B5E6B9F6B9D6A074800F0B8F8A3
:10037000CDF800803B4632462946204600F0C8F8BA
:1003800000BEFEE700ED00E0F42000081EF0040FC0
:100390000CBFEFF30880EFF309807146134A104752
:1003A0002DE9F04182B004468846084B5E6B9F6B96
:1003B0009D6A074800F094F8CDF800803B4632462D
:1003C0002946204600F0A4F800BEFEE700ED00E05C
:1003D0000021000800BEFEE700BEFEE700BEFEE70B
:1003E00070470000E302000859030008A103000859
:0403F00000BEFEE766
:1003F400502100080000002078000020502100084F
:10040400000000100000001078000020AC01002063
:080414000000001000000010C0
:10042000FEE7000008B503460C4A12685AB10B4AB1
:100430001068033323F003030344094A934206D8A8
:10044000064A136008BD054A06491160EFE701F04E
:1004500047F90C2303604FF0FF30F3E77C000020E6
:1004600000FC0020AC01002001230360014B0B6065
:10047000704700BF040000202DE9F04385B004461A
:100480000F4643560BB10E461EE004252846214672
:10049000ABBE0446384605B0BDE8F08314F9011B35
:1004A00004AA1A4402F8101C0133AB42F6D304AA82
:1004B0001344002203F8102C4FF00408E94640468C
:1004C0004946ABBE8046761B002EE3D03546102E43
:1004D00028BF10250023E8E708B5FFF7CDFF08BDCA
:1004E0000FB400B583B004AB53F8042B0193802103
:1004F000064801F027F9002803DD01460348FFF70D
:10050000EBFF03B05DF804EB04B0704784000020FB
:10051000F8B504460D4617461E462748FFF7E0FF8C
:1005200021682648FFF7DCFF61682548FFF7D8FF00
:10053000A1682448FFF7D4FFE1682348FFF7D0FF04
:1005400021692248FFF7CCFF61692148FFF7C8FF06
:10055000A1692048FFF7C4FFE1691F48FFF7C0FF0A
:100560001E48FFF7BDFF29461D48FFF7B9FF1D4C88
:10057000E16A1D48FFF7B4FF216B1C48FFF7B0FF8D
:10058000E16B1B48FFF7ACFF15F0800F0AD115F4A3
:10059000004F0CD11748FFF7A3FF06991648FFF745
:1005A0009FFFF8BD39461548FFF79AFFEFE7314640
:1005B0001348FFF795FFEDE7C81F0008D81F000894
:1005C000E81F0008F81F000808200008182000088D
:1005D000282000083820000848200008582000087B
:1005E0006420000800ED00E074200008842000086A
:1005F00094200008C4200008CC200008A420000893
:10060000B420000883691A888A4201D0002070470C
:100610000268033A012A03D802338361012070473C
:100620000020704708B500F009F8024A024B9A60B2
:1006300008BD00BF0000000800ED00E0024B4FF0D5
:1006400000629A60704700BF00ED00E0A0F1300347
:10065000362B26D8DFE803F01C1C1C1C1C1C1C1CA1
:100660001C1C252525252525251F1F1F1F1F1F2570
:10067000252525252525252525252525252525252A
:100680002525252525252525252222222222220051
:100690003038C0B270473738C0B270475738C0B230
:1006A00070470020704700002DE9F047044640786D
:1006B000FFF7CCFF0501A078FFF7C8FF4FFA80F9DC
:1006C00049EA05096079FFF7C1FF0501A079FFF745
:1006D000BDFF4FFA80F848EA05085FFA88F8E0782D
:1006E000FFF7B4FF05012079FFF7B0FF40B22843C0
:1006F000C0B248EA0028E079FFF7A8FF0501207A98
:10070000FFF7A4FF284304280DD05FFA89F90128D8
:1007100023D000BB2B4B1B8848EA03482A4BC3F865
:100720000080002644E0E07AFFF790FF0601207B7E
:10073000FFF78CFF45B23543EDB2607AFFF786FFD5
:100740000601A07AFFF782FF40B23043C0B245EA0B
:1007500000251C4B1D80BDE8F0871C4B01221A7040
:10076000F9E7B70007F10903E05CFFF76FFF4FEA15
:10077000001A07F10A03E05CFFF768FF45B245EA9B
:100780000A05EDB207F10B03E05CFFF75FFF4FEAEC
:10079000001A0C37E05DFFF759FF40B240EA0A004B
:1007A000C0B245EA00250A4B23F816500136F6B2CE
:1007B0004FEA5902B242D4D80549404600F046F803
:1007C000C9E700BF0C000020040100200C0100203C
:1007D0001C0100201B4BDB6813F4803FFAD1194B3E
:1007E0001B69002B06DB174B1969012262F30921F3
:1007F000196123E0134B144A5A6002F188325A609F
:10080000F1E7104B196962F3C6011961196941F0EA
:1008100002011961196941F480311961094BDB68E2
:1008200013F4803FFAD1074BD96841F00101D96038
:1008300019696FF3410119610132D2B2052AE0D979
:10084000704700BF003C02402301674530B41A4B9B
:10085000DB6813F4803FFAD1174B1B69002B07DBD1
:10086000154B1C69012565F309241C6100241EE059
:10087000114B124C5C6004F188345C60F0E70E4D63
:100880002B6943F001032B6131F8143003800A4BCC
:10089000DB6813F4803FFAD1074BDD6845F00105B2
:1008A000DD6002301D696FF300051D610134944263
:1008B000E5D330BC704700BF003C024023016745D0
:1008C000034620B9A1F10D00C0B202280DD9012BB9
:1008D00007D010B4012B17D043B1022B22D010BC8B
:1008E0007047C81EC0B20128F3D87047144B1C686B
:1008F00048000321814024EA010119601C6802FAC2
:1009000000F121431960EAE70E4B1C6848000321FF
:10091000814024EA010119601C6802FA00F12143B8
:100920001960DCE7084B1868490003248C4020EA72
:1009300004001860186802FA01F101431960CEE75B
:10094000000002400004024000080240034620B9B3
:10095000A1F10D00C0B202280DD9012B07D010B4AF
:10096000012B29D043B1022B46D010BC7047C81EC2
:10097000C0B20128F3D8704707290DD82E4C236A3E
:1009800089000F20884023EA00032362236A02FAC9
:1009900001F119432162E8E7274C636AA1F10800DD
:1009A00080000F21814023EA01036362636A02FA37
:1009B00000F119436162D8E707290DD81F4C236A5B
:1009C00089000F20884023EA00032362236A02FA89
:1009D00001F119432162C8E71848446AA1F10803EC
:1009E0009B000F21994024EA01014162416A02FA09
:1009F00003F30B434362B8E707290ED90F4B586A3C
:100A0000083989000F248C4020EA04005862586A93
:100A100002FA01F101435962A7E7094C236A8900F0
:100A20000F20884023EA00032362236A02FA01F1BF
:100A30001943216299E700BF000002400004024010
:100A4000000802400A4A136843F001031360084B90
:100A50001B6813F0020FFAD0054B9A6822F00302CC
:100A60009A609A689A601A6842F400221A60704785
:100A700000380240032826D81F2924D8032822D86A
:100A8000DFE800F0020A121A0F48036C012202FA92
:100A900001F11943016470470B48436C012202FACB
:100AA00001F11943416470470748036B012202FAC0
:100AB00001F11943016370470348436B012202FAB5
:100AC00001F1194341637047003802400000000003
:100AD000D0B57D4CE3686FF3CF33E360E3686FF329
:100AE0000C33E360E3686FF3CB23E360E3686FF3F9
:100AF0008A23E360E3686FF30823E360E3686FF33E
:100B0000C713E360E3686FF38613E360E3686FF392
:100B10004513E360E3686FF30413E360E3686FF386
:100B20000003E360E068C0F3C030C0F1020000F0F1
:100B30003BFB0022654B00F0A1FB0022644B00F060
:100B40009DFB02460B465EA1D1E9000100F0C0FC0E
:100B500000F0A6FD80B20001A060E068C0F3C030E4
:100B6000C0F1020000F020FB0022584B00F086FB91
:100B70000022574B00F082FB02460B4650A1D1E900
:100B8000000100F0A5FC06460F46E068C0F3C03047
:100B9000C0F1020000F008FB00224C4B00F06EFB9D
:100BA00000224B4B00F06AFB02460B4644A1D1E900
:100BB000000100F08DFC00F073FD80B200F0F4FA4B
:100BC00002460B463046394600F0A0F90022414B60
:100BD00000F054FB00F064FD00F00F00A368184320
:100BE000A060E36843F00803E360E36843F00403B4
:100BF000E360394BDA686FF3CF32DA60DA686FF3AB
:100C00000C32DA60DA686FF3CB22DA60DA686FF3FD
:100C10008A22DA60DA686FF30822DA60DA686FF342
:100C2000C712DA60DA686FF38612DA60DA686FF397
:100C30004512DA60DA686FF30412DA60DA6842F0BB
:100C40000102DA60DA6842F00802DA60DA6842F03B
:100C50000402DA6003F55043DA686FF3CF32DA60EA
:100C6000DA686FF30C32DA60DA686FF3CB22DA609D
:100C7000DA686FF38A22DA60DA686FF30822DA60E2
:100C8000DA686FF3C712DA60DA686FF38612DA6037
:100C9000DA686FF34512DA60DA686FF30412DA602B
:100CA000DA6842F00102DA60DA6842F00802DA60DB
:100CB000DA6842F00402DA60D0BD00BFAFF3008012
:100CC0000000000080846E410010014000002040C0
:100CD0000020FC40000030400044004010B40228D6
:100CE00023D0062831D001280FD010BC704731F82E
:100CF0001040174B5C60164B1B6813F0800FFAD046
:100D00000130C0B29042F2D3EFE70020FAE731F8A9
:100D10001040104B5C600F4B1B6813F0800FFAD033
:100D20000130C0B29042F2D3DFE70020FAE731F899
:100D30001040094B5C60084B1B6813F0800FFAD021
:100D40000130C0B29042F2D3CFE70020FAE700BFF3
:100D500000100140004400400014014002280DD062
:100D6000062814D0012800D070470D4B1B6813F0E3
:100D7000200FFAD00A4B5B680B807047094B1B6849
:100D800013F0200FFAD0074B5B680B807047064BBF
:100D90001B6813F0200FFAD0034B5B680B80E3E76E
:100DA00000100140004400400014014002280AD015
:100DB00006280ED0012800D07047094AD36843F4B2
:100DC0000053D3607047074AD36843F40053D3609D
:100DD0007047054AD36843F40053D360ECE700BF83
:100DE0000010014000440040001401407047000022
:100DF00030B583B0FFF726FE00210220FFF73AFE50
:100E000004210120FFF736FE11210020FFF732FEFA
:100E100005210120FFF72EFEFFF75AFE02220921CD
:100E20000020FFF74DFD072209210020FFF78EFD6E
:100E300002220A210020FFF743FD07220A21002099
:100E4000FFF784FD0120FFF7B1FF002502AC04F895
:100E5000015D012222491046FFF740FF2146012093
:100E6000FFF77CFF2FE075B11E4B1B78012B0ED0D6
:100E700001221D491046FFF731FF1C490120FFF7F1
:100E80006DFF002418E0FFF7A5FC0125ECE7012227
:100E900017491046FFF722FF164B174A1A60174BE7
:100EA0001B68174A13609847EBE70134E4B20F4917
:100EB00021440120FFF752FF0C4B1B5D0A2BF4D19C
:100EC0000A48FFF7F1FB9DF80730522BCBD0094BB6
:100ED000094A1A60094B1B68094A13609847F2E7F0
:100EE000102100080C0100201421000844010020FA
:100EF0001821000808ED00E0004000080440000848
:100F00000801002081F0004102E000BF83F00043AF
:100F100030B54FEA41044FEA430594EA050F08BF94
:100F200090EA020F1FBF54EA000C55EA020C7FEA58
:100F3000645C7FEA655C00F0E2804FEA5454D4EBD5
:100F40005555B8BF6D420CDD2C4480EA020281EA9F
:100F5000030382EA000083EA010180EA020281EAD7
:100F60000303362D88BF30BD11F0004F4FEA013129
:100F70004FF4801C4CEA113102D0404261EB410138
:100F800013F0004F4FEA03334CEA133302D05242BE
:100F900063EB430394EA050F00F0A780A4F101047A
:100FA000D5F1200E0DDB02FA0EFC22FA05F28018B4
:100FB00041F1000103FA0EF2801843FA05F359419A
:100FC0000EE0A5F120050EF1200E012A03FA0EFC19
:100FD00028BF4CF0020C43FA05F3C01851EBE37143
:100FE00001F0004507D54FF0000EDCF1000C7EEB60
:100FF00000006EEB0101B1F5801F1BD3B1F5001F9E
:101000000CD349085FEA30004FEA3C0C04F10104BC
:101010004FEA445212F5800F80F09A80BCF1004FE5
:1010200008BF5FEA500C50F1000041EB045141EA67
:10103000050130BD5FEA4C0C404141EB010111F468
:10104000801FA4F10104E9D191F0000F04BF014613
:101050000020B1FA81F308BF2033A3F10B03B3F1F1
:1010600020020CDA0C3208DD02F1140CC2F10C0281
:1010700001FA0CF021FA02F10CE002F11402D8BFDF
:10108000C2F1200C01FA02F120FA0CFCDCBF41EAAB
:101090000C019040E41AA2BF01EB0451294330BD7A
:1010A0006FEA04041F3C1CDA0C340EDC04F1140457
:1010B000C4F1200220FA04F001FA02F340EA03002E
:1010C00021FA04F345EA030130BDC4F10C04C4F174
:1010D000200220FA02F001FA04F340EA0300294654
:1010E00030BD21FA04F0294630BD94F0000F83F49E
:1010F000801306BF81F480110134013D4EE77FEA81
:10110000645C18BF7FEA655C29D094EA050F08BFCC
:1011100090EA020F05D054EA000C04BF19461046AD
:1011200030BD91EA030F1EBF0021002030BD5FEAF1
:10113000545C05D14000494128BF41F0004130BD19
:1011400014F580043CBF01F5801130BD01F000456D
:1011500045F0FE4141F470014FF0000030BD7FEAE0
:10116000645C1ABF194610467FEA655C1CBF0B46DB
:10117000024650EA013406BF52EA033591EA030FF2
:1011800041F4002130BD00BF90F0000F04BF0021EA
:10119000704730B54FF4806404F132044FF000051D
:1011A0004FF0000150E700BF90F0000F04BF002196
:1011B000704730B54FF4806404F1320410F00045FC
:1011C00048BF40424FF000013EE700BF42004FEAF7
:1011D000E2014FEA31014FEA02701FBF12F07F4374
:1011E00093F07F4F81F06051704732F07F4208BF2B
:1011F000704793F07F4F04BF41F40021704730B532
:101200004FF4607401F0004521F000411CE700BF7D
:1012100050EA010208BF704730B54FF000050AE000
:1012200050EA010208BF704730B511F0004502D501
:10123000404261EB41014FF4806404F132045FEA03
:10124000915C3FF4D8AE4FF003025FEADC0C18BFAC
:1012500003325FEADC0C18BF033202EBDC02C2F19E
:10126000200300FA03FC20FA02F001FA03FE40EA30
:101270000E0021FA02F11444BDE600BF70B54FF034
:10128000FF0C4CF4E06C1CEA11541DBF1CEA135512
:1012900094EA0C0F95EA0C0F00F0DEF82C4481EA7A
:1012A000030621EA4C5123EA4C5350EA013518BF9A
:1012B00052EA033541F4801143F4801338D0A0FB87
:1012C00002CE4FF00005E1FB02E506F00042E0FB34
:1012D00003E54FF00006E1FB03569CF0000F18BF3A
:1012E0004EF0010EA4F1FF04B6F5007F64F54074E2
:1012F00004D25FEA4E0E6D4146EB060642EAC62175
:1013000041EA55514FEAC52040EA5E504FEACE2EE1
:10131000B4F1FD0C88BFBCF5E06F1ED8BEF1004FE4
:1013200008BF5FEA500E50F1000041EB045170BD60
:1013300006F0004646EA010140EA020081EA0301A4
:10134000B4EB5C04C2BFD4EB0C0541EA045170BDA0
:1013500041F480114FF0000E013C00F3AB8014F11A
:10136000360FDEBF002001F0004170BDC4F1000463
:10137000203C35DA0C341BDC04F11404C4F12005E4
:1013800000FA05F320FA04F001FA05F240EA02003F
:1013900001F0004221F0004110EBD37021FA04F675
:1013A00042EB06015EEA430E08BF20EAD37070BD2F
:1013B000C4F10C04C4F1200500FA04F320FA05F08E
:1013C00001FA04F240EA020001F0004110EBD37090
:1013D00041F100015EEA430E08BF20EAD37070BD00
:1013E000C4F1200500FA05F24EEA020E20FA04F3D9
:1013F00001FA05F243EA020321FA04F001F0004188
:1014000021FA04F220EA020000EBD3705EEA430EF8
:1014100008BF20EAD37070BD94F0000F0FD101F027
:101420000046400041EB010111F4801F08BF013C60
:10143000F7D041EA060195F0000F18BF704703F09E
:101440000046520043EB030313F4801F08BF013D25
:10145000F7D043EA0603704794EA0C0F0CEA1355E1
:1014600018BF95EA0C0F0CD050EA410618BF52EA9B
:101470004306D1D181EA030101F000414FF00000A1
:1014800070BD50EA410606BF1046194652EA4306AF
:1014900019D094EA0C0F02D150EA013613D195EA23
:1014A0000C0F05D152EA03361CBF104619460AD16B
:1014B00081EA030101F0004141F0FE4141F4700175
:1014C0004FF0000070BD41F0FE4141F4780170BD65
:1014D00070B54FF0FF0C4CF4E06C1CEA11541DBFCA
:1014E0001CEA135594EA0C0F95EA0C0F00F0A7F8CC
:1014F000A4EB050481EA030E52EA03354FEA0131F9
:1015000000F088804FEA03334FF0805545EA13130B
:1015100043EA12634FEA022245EA111545EA1065D3
:101520004FEA00260EF000419D4208BF964244F16A
:10153000FD0404F5407402D25B084FEA3202B61A89
:1015400065EB03055B084FEA32024FF480104FF45D
:10155000002CB6EB020E75EB030E22BFB61A7546D1
:1015600040EA0C005B084FEA3202B6EB020E75EB64
:10157000030E22BFB61A754640EA5C005B084FEACC
:101580003202B6EB020E75EB030E22BFB61A754699
:1015900040EA9C005B084FEA3202B6EB020E75EBA4
:1015A000030E22BFB61A754640EADC0055EA060E65
:1015B00018D04FEA051545EA16754FEA06164FEAA8
:1015C000C30343EA52734FEAC2025FEA1C1CC0D154
:1015D00011F4801F0BD141EA00014FF000004FF0E1
:1015E000004CB6E711F4801F04BF01430020B4F1A2
:1015F000FD0C88BFBCF5E06F3FF6AFAEB5EB030C5A
:1016000004BFB6EB020C5FEA500C50F1000041EB56
:10161000045170BD0EF0004E4EEA113114EB5C0423
:10162000C2BFD4EB0C0541EA045170BD41F48011F6
:101630004FF0000E013C90E645EA060E8DE60CEAFE
:10164000135594EA0C0F08BF95EA0C0F3FF43BAF1B
:1016500094EA0C0F0AD150EA01347FF434AF95EAD2
:101660000C0F7FF425AF104619462CE795EA0C0FB6
:1016700006D152EA03353FF4FDAE1046194622E783
:1016800050EA410618BF52EA43067FF4C5AE50EA5D
:1016900041047FF40DAF52EA43057FF4EBAE12E74D
:1016A0004A0011D212F5001211D20DD56FF47873E1
:1016B000B3EB62520ED44FEAC12343F0004343EA36
:1016C000505323FA02F070474FF00000704750EA81
:1016D000013002D14FF0FF3070474FF000007047EB
:1016E000014B1868704700BF1000002030B5141E71
:1016F00005469BB0184605DA8B232B604FF0FF3070
:101700001BB030BD4FF40273ADF80C3014BF04F1C0
:10171000FF332346029305934FF6FF730091049124
:10172000ADF80E3002461E9B6946284600F072F85E
:10173000431CBCBF8B232B60002CE1D0009B0022FC
:101740001A70DDE707B5009313460A4601460348C1
:101750000068FFF7CBFF03B05DF804FB100000202A
:101760002DE9F0478E689E4282460C469046994687
:1017700037D88A8912F4906F31D0256809696F1AB9
:101780006569022305EB450595FBF3F509F10103B6
:101790003B449D4238BF1D46530530D5294600F0D5
:1017A00079FB064650B90C23CAF80030A38943F0F0
:1017B0004003A3814FF0FF30BDE8F0873A4621692E
:1017C00000F0F6FAA38923F4906343F08003A38129
:1017D000266165613E44ED1B2660A5604E464E4580
:1017E00000D94E4632464146206800F0ECFAA36824
:1017F0009B1BA36023681E4426600020DCE72A466A
:1018000000F0A2FB06460028E2D12169504600F014
:10181000F3FAC8E72DE9F04F9DB0804603938B891A
:101820001D060C4616460FD50B696BB9402100F01A
:1018300031FB2060206128B90C23C8F800304FF03C
:10184000FF30C7E0402363610023099320238DF814
:10185000293030238DF82A304FF0010B37463D46B2
:1018600015F8013B0BB1252B3ED1B7EB060A0BD087
:101870005346324621464046FFF772FF013000F0E2
:10188000A480099B534409933B78002B00F09D8072
:1018900000234FF0FF32CDE90523049307938DF821
:1018A00053301A932F46052217F8011B4F4800F0BA
:1018B0002FFA049BD0B9D90644BF20228DF85320BB
:1018C0001A0744BF2B228DF853202A782A2A15D0D4
:1018D000079A2F4600200A25394611F8013B303B74
:1018E000092B4DD9B8B10FE02F46B8E73F4A801A0F
:1018F0000BFA00F0184304903D46D3E7039A111DFC
:1019000012680391002A01DB079204E0524243F07F
:101910000203079204933B782E2B0CD17B782A2B61
:1019200033D1039B1A1D1B680392002BB8BF4FF0E5
:10193000FF33023705932E4D39780322284600F0F5
:10194000E7F938B14023401B03FA00F0049B03433E
:1019500001370493397827488DF8281006227E1C19
:1019600000F0D6F9002838D0234B13BB039B073374
:1019700023F0070308330393099B4B4409936DE756
:1019800005FB023201200F46A6E70023013705932D
:1019900019460A25384610F8012B303A092A03D98E
:1019A000002BC8D00591C6E705FB0121012307469E
:1019B000F0E703AB00932246104B04A94046AFF377
:1019C0000080B0F1FF3F8146D6D1A3895B063FF589
:1019D00036AF09981DB0BDE8F08F03AB00932246E7
:1019E000064B04A9404600F081F8EAE71C210008F4
:1019F00022210008262100080000000061170008CD
:101A00002DE9F04791461F468A680B69DDF8208072
:101A10009342B8BF1346C9F8003091F843200646F8
:101A20000C4612B10133C9F800302368990642BF51
:101A3000D9F800300233C9F80030256815F00605E2
:101A400007D104F1190AE368D9F800209B1AAB42C8
:101A500028DC94F843302268003318BF0123920633
:101A60002DD404F1430239463046C047013020D01E
:101A70002368E568D9F8002003F00603042B08BFAB
:101A8000AD1AA36822690CBF25EAE57500259342CB
:101A9000C4BF9B1AED184FF000091A344D451AD1F6
:101AA000002008E00123524639463046C047013045
:101AB00003D14FF0FF30BDE8F0870135C3E7E118EF
:101AC0005A1C302081F84300224494F8451082F8D3
:101AD00043100233C5E70123224639463046C0474A
:101AE0000130E6D009F10109D8E700002DE9F04303
:101AF00001F1430C0C46097E85B06E291746064657
:101B000098460C9A00F0B38022D8632936D00AD8C0
:101B1000002900F0B980582900F0838004F14205C3
:101B200084F8421032E0642901D06929F6D1206896
:101B30001368050603F104012AD51B681160002B08
:101B400003DA2D225B4284F843206F480A2239E0F1
:101B5000732900F09D8008D86F2920D07029DDD12D
:101B6000236843F02003236003E0752917D0782908
:101B7000D4D1782384F84530644855E01368191DA2
:101B80001B68116004F1420584F8423001238CE0A7
:101B90001B68116010F0400F18BF1BB2CFE713682D
:101BA0002568181D1060280601D51B6802E068062C
:101BB000FBD51B8854486F2914BF0A220822002134
:101BC00084F843106568A560002DC0F295802168F7
:101BD00021F004012160002B3DD1002D40F08E80CA
:101BE0006546082A0BD12368DB0708D5236962689C
:101BF0009A42DEBF302305F8013C05F1FF35ACEB1E
:101C000005032361CDF800803B4603AA21463046F8
:101C1000FFF7F6FE01304DD14FF0FF3005B0BDE8C3
:101C2000F083394884F84510136821681D1D1B682E
:101C300015600A060BD5CA0744BF41F02001216098
:101C40001BB9226822F0200222601022B7E74D065D
:101C500048BF9BB2EFE76546B3FBF2F102FB1133DD
:101C6000C35C05F8013D0B460029F5D1B9E71368BF
:101C700025686169181D106028061B6801D5196068
:101C800002E06A06FBD51980002323616546B9E7A7
:101C90001368191D11601D6862680021284600F054
:101CA00037F808B1401B606063682361002384F843
:101CB0004330A7E723692A4639463046C0470130FA
:101CC000AAD023689B0713D4E068039B9842B8BF4F
:101CD0001846A3E701234A4639463046C04701303B
:101CE0009AD00135E368039A9B1AAB42F2DCEBE72A
:101CF000002504F11909F5E7002BACD1037884F82D
:101D0000423004F142056CE72D2100083E21000815
:101D100001F0FF01102A2BDB10F0070F08D010F89C
:101D2000013B013A8B422DD010F0070F42B3F6D1A0
:101D3000F0B441EA012141EA014122F007047FF0B9
:101D400000070023F0E80256083C85EA010586EA10
:101D5000010685FA47F5A3FA87F586FA47F6A5FA4C
:101D600087F68EB9EED1F0BC01F0FF0102F0070258
:101D700032B110F8013B013A83EA010313B1F8D103
:101D80000020704701387047002D06BF35460338E4
:101D9000073815F0010F07D1013015F4807F02BF1D
:101DA000013015F4C03F0130F0BC0138704700BF6E
:101DB00010B5431E0A44914200D110BD11F8014BE9
:101DC00003F8014FF7E7884210B501EB020307D88B
:101DD000421E99420AD011F8014B02F8014FF8E770
:101DE0008342F5D98118D21AD34200D110BD13F81D
:101DF000014D01F8014DF7E738B50546002945D0FA
:101E000051F8043C0C1F002BB8BFE41800F0D2F8C6
:101E10001F4A1368104633B9636014602846BDE852
:101E2000384000F0C8B8A3420CD921686218934228
:101E300004BF1A685B68636004BF521822600460C4
:101E4000ECE713465A680AB1A242FAD91968581841
:101E5000A0420BD120680144581882421960DDD19C
:101E6000106852685A6001441960D7E702D90C2300
:101E70002B60D3E7206821188A4204BF116852689A
:101E8000626004BF091821605C60C7E738BD00BF0D
:101E90001001002070B5CD1C25F0030508350C2D70
:101EA00038BF0C25002D064601DBA94203D90C23BF
:101EB0003360002070BD00F07DF8214A146821468F
:101EC00091B9204C23681BB9304600F063F82060BC
:101ED0002946304600F05EF8431C24D10C233360C1
:101EE000304600F068F8E4E70B685B1B18D40B2B56
:101EF0000FD90B60CD50CC18304600F05CF804F1DF
:101F00000B00231D20F00700C31AD3D05A42E25021
:101F1000D0E78C424B6816BF636013600C46EBE75A
:101F20000C464968CCE7C41C24F00304A04205D049
:101F3000211A304600F02EF80130CFD02560DBE7C3
:101F40001001002014010020F8B5074614460E4683
:101F500021B91146BDE8F840FFF79CBF22B9FFF751
:101F60004BFF25462846F8BD00F026F8A0420FD2C8
:101F700021463846FFF78EFF05460028F2D031464D
:101F80002246FFF715FF31463846FFF735FFE9E7F0
:101F90003546E7E738B5064C00230546084623607A
:101FA000FEF740FA431C02D1236803B12B6038BD11
:101FB000180100207047704751F8043C181F002B8F
:101FC000BCBF0B58C0187047537461636B206672B6
:101FD000616D653A0A000000205230203D20202526
:101FE0003038580A00000000205231203D202025C2
:101FF0003038580A00000000205232203D202025B1
:102000003038580A00000000205233203D2020259F
:102010003038580A0000000020523132203D20257F
:102020003038580A00000000204C52203D20202566
:102030003038580A00000000205043203D20202561
:102040003038580A0000000020505352203D20250F
:102050003038580A000000004653522F4641523A89
:102060000A0000002043465352203D2020253038EE
:10207000580A00002048465352203D202025303881
:10208000580A00002044465352203D202025303875
:10209000580A00002041465352203D202025303868
:1020A000580A0000204D4D464152203D2025303831
:1020B000580A00002042464152203D202025303859
:1020C000580A00004D6973630A000000204C522F2B
:1020D0004558435F52455455524E3D20253038589F
:1020E0000A0000005B486172644661756C745D0AA9
:1020F000000000005B4275734661756C745D0A00F8
:102100005B55736167654661756C745D0A0000001C
:10211000510000004B0000004E000000232D302B2A
:102120002000686C4C0065666745464700303132D8
:10213000333435363738394142434445460030312F
:0F2140003233343536373839616263646566008F
:102150007856341280000020000000000008FFFFC5
:10216000140000200000000000000000000000003B
:10217000000000000000000000000000000000005F
:10218000000000000000000000000000000000004F
:10219000000000000000000000000000000000003F
:1021A000000000000000000000000000000000002F
:1021B000000000000000000000000000000000001F
:0821C000000000003254769883
:040000050800019559
:00000001FF
